:0400000045EF27F0B1
:08000800046ED8CF05F0E0CF33
:1000100006F00001E9CF0CF0EACF07F0E1CF08F0DD
:10002000E2CF09F0D9CF0AF0DACF0BF0F3CF12F01C
:10003000F4CF13F0FACF14F0F5CF15F0F6CF16F099
:10004000F7CF17F000C00EF001C00FF002C010F0A3
:1000500003C011F0F2AA30EF00F0F2B486EF09F01D
:100060009DA036EF00F09EB0F7EF09F09DA23CEFA7
:1000700000F09EB2D7EF0BF0A0A242EF00F0A1B2C9
:10008000DFEF0BF09DAA48EF00F09EBAFFEF08F0FB
:10009000A0A04EEF00F0A1B00DEF0CF0A0A854EF1F
:1000A00000F0A1B8A0EF08F00EC000F00FC001F002
:1000B00010C002F011C003F00CC0E9FF07C0EAFF56
:1000C000078E08C0E1FF09C0E2FF0AC0D9FF0BC0DC
:1000D000DAFF12C0F3FF13C0F4FF14C0FAFF15C01B
:1000E000F5FF16C0F6FF17C0F7FF045006C0E0FF8B
:1000F00005C0D8FF1000F76A060FF66E010EF72252
:100100000900F5501200000302FFFFFFFFFFFFFF91
:10011000FFFFFFFFFFFFF76A260FF66E010EF722C3
:100120000900F550120000FF02FFFFFFFFFFFFFF75
:10013000FFFFFFFFFFFFF76A460FF66E010EF72283
:100140000900F550120040000B00400000000000C4
:10015000000000000000000000000000000000009F
:10016000000000000000F76A760FF66E010EF7221D
:100170000900F5501200400000004000000000009F
:10018000000000000000000000000000000000006F
:10019000000000000000F76AA60FF66E010EF722BD
:1001A0000900F550120009024300020100803209E3
:1001B00004000001020201000524001001042402D1
:1001C0000205240600010524010001070581030B37
:1001D00000FA09040100020A0000000705020240BB
:1001E00000010705820240000100F76AFA0FF66E6F
:1001F000010EF7220900F55012000200F76A0C0FF9
:10020000F66E020EF7220900F550120012171B209D
:10021000FFFFFFFFF76A240FF66E020EF7220900B8
:10022000F550120012011001020000406104330079
:10023000000101020001F76A460FF66E020EF72276
:100240000900F550120004030904080343004300A9
:1002500053001803530045005200490041004C0070
:100260002000440045004D004F0065920F015C9551
:1002700062A402D06294FCD70001B0EF08F0400EF7
:100280000401016F040E036F180E026F880E006FD9
:10029000046B040E076F580E066F000112000F0169
:1002A0004CA104D00001EBDF0F014C91629A0001D8
:1002B000BDEF08F0636A6292C7EF08F00A01589137
:1002C00057BF5881579F5751100803E2000E016E27
:1002D0001AD058A10DD0036A575100010CDFFF0856
:1002E00002E1000E01D0010E016E0A010CD00BD00C
:1002F000036A575100010FDFFF0802E1000E01D031
:10030000010E016E0A01000112000A015C515E0338
:10031000F3CF01F0F4CF00F05F03F35000265D51FE
:100320005E03F3500020026E00011200036A0A010E
:1003300056514C0FE96E0F0E0320EA6EEF6A56CA53
:1003400057FA0001BBDF015228E00A015D6B56CA73
:100350005CFA5F6B080E5E6F0001D7DF0A0101C017
:10036000E9FF040E0224EA6EEF6A5D6B56CA5CFA7E
:100370005F6B080E5E6F0001C8DF02C058FA01C053
:1003800057FA040E0A015727000E582357CAE9FFEF
:10039000040E5825EA6EEF6A00011200010E0A01F0
:1003A000556F55510F0807E355CA56FA0001BEDFD5
:1003B0000A01552BF6D7000112000A014F6B4E6B54
:1003C000250E4D6F800E4C6FEA6A2B0EE96E0A0EF9
:1003D000E26E4C0EE16E020E016EE6CFEEFF012ED4
:1003E000FCD72D6A2E6A4C6BEA6A2F0EE96E0A0E54
:1003F000E26E4C0EE16EE6CFEEFF4C6BEA6A300E19
:10040000E96E0A0EE26E4C0EE16EE6CFEEFF080ECC
:100410004C6FEA6A310EE96E0A0EE26E4C0EE16E26
:10042000E6CFEEFF0001806B7F91336A326A7B6B0F
:100430007C91816B1200286A276A0A014B6B4B5131
:1004400001080AE3036A4B51290FE96E000E0320ED
:10045000EA6EEF6A4B2BF3D70001AFDF1B6A010E88
:100460001C6E1A6A120062961200636A626A9F0E1C
:100470000F015D6F3D0E5C6F5E6B00018FDFDBDF98
:10048000160E0F014C6F62A604D00001ECDF0F01C5
:10049000FAD765980001F3DE030E226ED1EF08F063
:1004A0000F015C85629865820001DBEF08F0629CB9
:1004B000E5EF08F050CA23F01200236812000A0189
:1004C0004E6B2750281033E04E513F0830E31D504B
:1004D000000A000105E0020A0AE0010A0FE014D058
:1004E00026C003F0255057DEE8CF4FFA0DD026C0C6
:1004F00003F02550A0DEE8CF4FFA06D026C003F067
:10050000255088DEE8CF4FFA252AD8B4262A27506E
:10051000D8B4280627060A014E514E2B580FE96E13
:10052000040EEA6ED8B0EA2A4FCAEFFFCAD72750A6
:10053000281004E14E51400801E01A6A4ECA50FAF0
:100540000001B8DF1200266A256A1D6A04011B51EA
:10055000010A000107E0030A0BE0010A0DE0220A8C
:1005600022E03AD0286A120E276E030E1D6E36D096
:10057000286A430E276E32D0020E1D6E036A0401F4
:100580001A511E0FE96E000E0320EA6E266AEFCFA5
:1005900025F026C003F0255000014DDE036A276ECA
:1005A00003C028F01BD0036A04011A51000126DEA3
:1005B000036A256E03C026F0253C02D026520AE0CD
:1005C00026C003F02550E7DD036A276E03C028F03C
:1005D00005D002D072DF11D070DF0FD004011F539D
:1005E00008E1285203E127501E5D03E2286A1EC479
:1005F00027F0010E1A6E000162DF4AEF04F00A01D3
:100600004D5306E1040E226E0001C8DEE7D00A0158
:10061000050E226E040E506F980E4F6F010E4E6F36
:100620004E510F08D8A0DAD04ECA56FA00017EDE2D
:100630000A01516B036A4E5100016DDDFF0865E050
:10064000040E0A01516FD8904E35036A00018BDD0C
:100650000900F5CF03F00A01526F03C053FA5D6B36
:100660004ECA5CFA5F6B080E5E6F00014EDE01C081
:1006700055FA010E0A010124016E000E0220036EDC
:1006800001C0E9FF040E0324EA6E52CAEFFF5D6B5E
:100690004ECA5CFA5F6B080E5E6F000136DE01C069
:1006A00055FA020E0A010124016E000E0220036EAB
:1006B00001C0E9FF040E0324EA6E50CAECFFED52BC
:1006C0004FCAEFFFD8904E35036A00014CDD090098
:1006D000F5CF03F00A014F2703505023880E546FC3
:1006E00053B1548153B354835D6B4ECA5CFA5F6B54
:1006F000080E5E6F000109DE0A0101C0E9FF040E69
:100700000224EA6E54CAEFFF0001036A0A014E5147
:100710000001F1DCFF0847E00A0151835D6B4ECA1E
:100720005CFA5F6B080E5E6F0001EFDD02C056FAE7
:1007300001C055FA040E0A015527000E5623020E79
:100740005525016E000E5621036E01C0E9FF040E0F
:100750000324EA6E50CAECFFED524FCAEFFFD89067
:100760004E35036A0001E7DC0900F5CF03F00A010A
:100770004F27035050235D6B4ECA5CFA5F6B080E27
:100780005E6F0001C2DD02C056FA01C055FA040EC8
:100790000A015527000E562355CAE9FF040E5625B7
:1007A000EA6E400EEF6E0A015151060802E10E0E8C
:1007B000516F036A4E5100019EDC010803E00A01FB
:1007C00051890001036A0A014E514C0FE96E0F0E68
:1007D0000320EA6E51CAEFFF4E2B22D7000143EFF0
:1007E00004F004011951000A00010DE0010A15E0AE
:1007F000020A20E0060A2AE0030A31E00E0A31E08C
:10080000010A37E046D01CC058F40401596B020EAF
:100810000A01506F00014EDE3DD004011A2D07D0B1
:10082000010E1C160A01506B000144DE02D00001CB
:1008300044DE30D004011A2D06D01C820A01506B10
:10084000000138DE02D0000138DE24D0020E1A6E1C
:100850001AC424F00A01506B00012CDE1BD073D6A1
:1008600019D01BC058F4010E0A01506F000122DE9E
:1008700011D004011A5101080AE31AC41BF01AC46A
:100880004DFA0001BCD60A01506B000113DE0001D5
:1008900001D013DEDFEF05F01BC04DFA0401195142
:1008A000000A000105E00A0A0CE0010A2BE03FD033
:1008B0000401586B596B020E0A01506F0001FADDFA
:1008C00037D00A014D531BE0010E4D5D036A000154
:1008D0008CDC016E04011C5DD8A002D00A010FD08F
:1008E000036A1C51290FE96E000E0320EA6EEFCF58
:1008F00058F4010E0A01506F0001DCDD02D0000146
:10090000DCDD16D00A014D530FE0036A04011C51CF
:10091000290FE96E000E0320EA6E1AC4EFFF0A01E8
:10092000506B0001C7DD02D00001C7DD01D0C5DD7D
:10093000DFEF05F00A014E914DBF4E814D9F4EA154
:1009400019D05D6B4DCA5CFA5F6B080E5E6F0001DB
:10095000DCDC02C050FA01C04FFA040E0A014F2736
:10096000000E50234FCAE9FF040E5025EA6E880E90
:10097000EF6E0FD05D6B4DCA5CFA5F6B080E5E6F59
:100980000001C3DC0A0101C0E9FF040E0224EA6E83
:10099000EF6A00014CEF05F00A014E914DBF4E8108
:1009A0004D9F4EA119D05D6B4DCA5CFA5F6B080E6E
:1009B0005E6F0001AADC02C050FA01C04FFA040EBB
:1009C0000A014F27000E50234FCAE9FF040E50259D
:1009D000EA6E840EEF6E10D05D6B4DCA5CFA5F6BF1
:1009E000080E5E6F000191DC0A0101C0E9FF040EF0
:1009F0000224EA6E840EEF6E000154EF05F00A0146
:100A00004E914DBF4E814D9F4EA119D05D6B4DCA89
:100A10005CFA5F6B080E5E6F000177DC02C051FA72
:100A200001C050FA040E0A015027000E512350CA8B
:100A3000E9FF040E5125EA6EEFCF4FFA10D05D6B3F
:100A40004DCA5CFA5F6B080E5E6F00015EDC0A0146
:100A500001C0E9FF040E0224EA6EEFCF4FFA4FAF58
:100A600002D04FB502D0000E01D0010E016E000180
:100A700060EF05F01CC457FA21DC01522DE004019F
:100A80001951010A000105E0020A0BE0030A11E016
:100A900022D01CC44DFA4ED70A01506B00010ADD6A
:100AA0001BD01CC44DFA78D70A01506B000102DD3F
:100AB00013D00401586B596B1CC44DFA00019FD729
:100AC000015203E0010E0401586F020E0A01506F3B
:100AD0000001F0DC01D0F1DCDFEF05F0FE0E236E4B
:100AE000120004011C2D01D002D01C534EE11951FB
:100AF000000A00010BE0010A0DE0210A1CE0010AD6
:100B00001FE0030A30E0010A35E03DD0010E816F9D
:100B1000E5DF3AD0040EEA6E580EE96EE26A340E52
:100B2000E16E080E016EE6CFEEFF012EFCD71EC46B
:100B300050FAC0DC29D0020E816F7F81CFDF24D034
:100B4000040EEA6E580EE96EE26A2B0EE16E070E95
:100B5000016EE6CFEEFF012EFCD7070E0A01506FA3
:100B60000001A8DC11D01AC480F00A01506B00010A
:100B7000A1DC0AD01AC433F01BC432F00A01506B56
:100B8000000198DC01D099DC04010001DFEF05F0E1
:100B90001A6A040118517F0B000A000107E0010ADC
:100BA00007E0030A07E0230A07E008D01AD607D0B7
:100BB00073D605D05FD703D094D701D07EDC40EF49
:100BC00008F00A015D6B4ECA5CFA5F6B080E5E6F3F
:100BD000000185EC01F00A0101C0E9FF040E0224C6
:100BE000EA6EEFCF50FA4F51020806E150AD02D045
:100BF0004F6B02D0010E4F6F4F5103081CE1840E62
:100C0000506F5D6B4ECA5CFA5F6B080E5E6F000141
:100C100085EC01F002C054FA01C053FA040E0A0137
:100C20005327000E542353CAE9FF040E5425EA6EDD
:100C3000840EEF6E07D04F2D03D0C80E506F02D038
:100C4000880E506FD8904E35036A0001B3EC00F067
:100C50000900F5CF03F00A01516F03C052FA5D6B32
:100C60004ECA5CFA5F6B080E5E6F000185EC01F006
:100C700001C053FA010E0A010124016E000E022088
:100C8000036E01C0E9FF040E0324EA6E51CAEFFFB0
:100C900052B1508152B350835D6B4ECA5CFA5F6BA8
:100CA000080E5E6F000185EC01F00A0101C0E9FF4A
:100CB000040E0224EA6E50CAEFFF00011200036A1C
:100CC0000A015B514C0FE96E0F0E0320EA6EEF52E2
:100CD0001BE05D6B5BCA5CFA5F6B080E5E6F000128
:100CE00085EC01F002C05DFA01C05CFA040E0A0155
:100CF0005C27000E5D235CCAE9FF040E5D25EA6EE9
:100D0000EFCF5EFA5EAF02D0000E01D0010E016E91
:100D10000001120056CA5BFAD2DF0152D8B485D066
:100D20000A015D6B56CA5CFA5F6B080E5E6F0001CC
:100D300085EC01F002C05CFA01C05BFA040E0A0106
:100D40005B27000E5C23010E5B25016E000E5C210B
:100D5000036E01C0E9FF040E0324EA6E57CAEFFFD9
:100D60005951020820E15D6B56CA5CFA5F6B080EB0
:100D70005E6F000185EC01F002C05CFA01C05BFA15
:100D8000040E0A015B27000E5C235BCAE9FF040E18
:100D90005C25EA6EEFCF5AFA5AAD02D0596B02D0F9
:100DA000010E596F1AD05951040817E15D6B56CAEC
:100DB0005CFA5F6B080E5E6F000185EC01F00A01C2
:100DC00001C0E9FF040E0224EA6EEFCF5AFA5AADD1
:100DD00003D0010E596F01D0596B592D03D0C80EA5
:100DE0005A6F02D0880E5A6F58B15A8158B35A833D
:100DF0005D6B56CA5CFA5F6B080E5E6F000185EC96
:100E000001F002C05CFA01C05BFA040E0A015B2724
:100E1000000E5C235BCAE9FF040E5C25EA6E5ACA29
:100E2000EFFF010E016E04D00001000E016E0A01F9
:100E3000000112008151010A03E0030A15E028D0E5
:100E4000EA6A340EE96E040EE26E180EE16E080EC8
:100E5000016EE6CFEEFF012EFCD70A01506B0001B8
:100E60005AEC02F0816B15D0EA6A2B0EE96E040E83
:100E7000E26E180EE16E070E016EE6CFEEFF012E58
:100E8000FCD7816B0A01506B00015AEC02F001D0D3
:100E9000816B88EF07F00A015D6B4ECA5CFA5F6BED
:100EA000080E5E6F000185EC01F002C050FA01C02F
:100EB0004FFA010E0A010124016E000E0220036E9A
:100EC00001C0E9FF040E0324EA6E036AEFCF01F0CC
:100ED00003C002F000017CEF07F07C91020E0A01D2
:100EE0004E6F4F6F00016DDE12007C817E6B020E33
:100EF0000A014E6F0001CFD701C07DF07D5301E1A3
:100F0000ECDF8FEF07F00A014D5304E1000192D7A7
:100F100006D00A014D51020803E10001E6D70A019B
:100F2000000112004ECA5EFF0A014E5303E0040E98
:100F3000226E02D0020E226E0001A4EF07F01B6A9F
:100F40001A6A24C04EFAEED71AEF08F04ECA5BFABE
:100F5000B6DE015247E00A015D6B4ECA5CFA5F6B78
:100F6000080E5E6F000185EC01F002C057FA01C067
:100F700056FA040E0A015627000E5723020E562574
:100F8000016E000E5721036E01C0E9FF040E032419
:100F9000EA6EECCF55FAED52EFCF54FA55CAEAFF9C
:100FA00054CAE9FF50CAE2FF4FCAE1FF52CA02F039
:100FB00051CA01F0015202E0022A02D0025206E0B8
:100FC000E6CFEEFF012EFCD7022EFAD74ECA56FA14
:100FD00052CA58FA51CA57FA53CA59FA00019ADE4E
:100FE000015002D0000E016E12007B5310E0020E81
:100FF0000A014E6F506B3C0E4F6F526B7BC051FA23
:10100000020E536F0001A2DF015201E07B6B120060
:10101000ECDF21EF08F00A014D530EE11A2C05D048
:1010200000015FEC02F006D00A011A50020803E149
:10103000000185D70A0106D04D51020803E10001E5
:10104000E7D70A010001120021300A014B6F4B3330
:101050004B331F0E4B1721524EE1040100513C0B44
:101060000A014C6F430E040100170A014C51340869
:1010700025E104010451800B01E0046B000188D5D7
:101080006598233C07D00A014E6B030E4F6F000199
:1010900098DD12D00A014E6B020E4F6F000191DDF8
:1010A0002350FE0809E00A01566B586B23C057FA1B
:1010B000040E596F00012EDE1CD00A014C510408A9
:1010C00019E14D6B00011FDF0A014E6B020E4F6FDD
:1010D000000177DD2350FE080CE0233C01D009D04D
:1010E0000A01566B586B23C057FA010E596F000165
:1010F00011DE0A0122D02150040812E123684D6B51
:10110000000189DF233C01D009D00A01566B586BDE
:1011100023C057FA020E596F0001FCDD0DD00A0101
:1011200021B406D04BCA4DFA0001EDDE05D00A010C
:101130004BCA4DFA00016FDF0A010001F4EF08F01D
:10114000A198225201E159D0625257E062A408D01E
:101150000F015CB502D0000103D0000135EF01F0B2
:1011600065A201D04AD062AA08D00F015CBB02D0B0
:10117000000103D000014FEF01F062A208D00F017F
:101180005CB302D0000103D000015AEF01F062A06D
:1011900008D00F015CB102D0000103D0000135EF8F
:1011A00002F062A808D00F015CB902D0000103D0A0
:1011B000000150EF02F062AC08D00F015CBD02D01C
:1011C000000103D0000157EF02F00A014A6B62A64A
:1011D0000DD00F015CB702D00A0108D064CF21F016
:1011E000000133EC02F030D702D00A0105D00A0129
:1011F0004A514A2B0308EBE2000154EF00F00201D0
:10120000435315E1036A4151210FE96E020E032099
:10121000EA6E9EAAFED7AFCFEFFF412B41511F08C8
:1012200001E2416B4251415D02E1010E436F9E9A22
:10123000000154EF00F04DCAB4F14CCAB3F14BCAEF
:10124000B2F14ACAB1F112000101046B04C182F08B
:10125000000112000101B66BB76BB86BB96B0001EE
:10126000120002011D6B1C6B00017F9302010A95A5
:101270000A810001EFDF8B92120002011D6B1C6BD3
:1012800000017F9302010AB53CD00A014D6B4C6B03
:101290001FC24BFA1EC24AFA0001CDDF8B82F2CF89
:1012A0004AFAF29EF86AF90EF76EE00EF66E090041
:1012B000F5500800F5CF03F0F86A0A014ABFF28E34
:1012C0004A6F4B6F4A6BF2CF4CFAF29EF86AF90EF6
:1012D000F76EE20EF66E0900F5500800F5CF03F048
:1012E000F86A4CBFF28E4A250101AB6F03500A0128
:1012F0004B210101AC6F0001A7DF02010A930A85AF
:1013000003D00001AEDF020100011200DB0ED76E38
:10131000610ED66E02011E2BD8B41F2B0101CA2DFF
:1013200001D002D00201202B02011C5302E11D5307
:1013300004E01C51D8B41D071C0781B009D00AA9CC
:1013400001D005D00A770A89000197DF020103D096
:101350000AA901D00A99442BF294000154EF00F03D
:101360000A014CCA00F04D51016E04E0D8900032E1
:10137000012EFCD70050010B016E000112000A0182
:101380005051070B006E5031016E013201321F0EB9
:10139000011601505225E96E000E5321EA6E016AD2
:1013A000012A002A01D00136002EFDD7515303E057
:1013B0000150EF1203D0011E0150EF160001120080
:1013C0004ECA50FA0A01516B0F0E536F890E526FBD
:1013D0000001D5DF12004ECA50FA010E0A01516F0A
:1013E0000F0E536F890E526F0001C9DF1200020108
:1013F00017511A5DD8B083D0036A1A51130FE96EE2
:10140000020E0320EA6EEFCF4AFA0A014B6B4B51F2
:10141000030856E34ACA4CFA4BCA4DFA0001A0DF52
:1014200001524BE0FFC14CFA4BCA4DFA99DF012C37
:1014300044D0FCC14CFA4BCA4DFA92DF015229E16B
:10144000D8900A014B35036ABA0FE96E010E0320EA
:10145000EA6EECCF4DFAED52EFCF4CFA4DCA4FFA8F
:101460004CCA4EFA0001ACDFD8900A014B35036A32
:10147000C20FE96E010E0320EA6EECCF4DFAED5279
:10148000EFCF4CFA4DCA4FFA4CCA4EFA000198DF22
:1014900014D0D8900A014B35036AC20FE96E010ED1
:1014A0000320EA6EECCF4DFAED52EFCF4CFA4DCA65
:1014B0004FFA4CCA4EFA000183DF0A014B2BA7D723
:1014C00002011A2B17511A5D12E2D8901A35036ADD
:1014D0000B0FE96E020E0320EA6EECCF4DFAED52CF
:1014E000EFCF4CFA4DCACFFF4CCACEFF07D019C27E
:1014F000CFFF18C2CEFF00017F8F020107D100018C
:101500007F9F0A014B6B4B510308D8A0F0D0FFC15D
:101510004CFA4BCA4DFA000123DF012CBDD0036AFF
:101520000A014BCAE9FF020E0324EA6EEF52D8B457
:101530008BD0FCC14CFA4BCA4DFA000111DF0152AD
:1015400059E1FEC14CFA4BCA4DFA0ADF015229E0BB
:10155000D8900A014B35036ABA0FE96E010E0320D9
:10156000EA6EECCF4DFAED52EFCF4CFA4DCA4FFA7E
:101570004CCA4EFA00012FDFD8900A014B35036A9E
:10158000C20FE96E010E0320EA6EECCF4DFAED5268
:10159000EFCF4CFA4DCA4FFA4CCA4EFA000110DF99
:1015A00028D0D8900A014B35036AC20FE96E010EAC
:1015B0000320EA6EECCF4DFAED52EFCF4CFA4DCA54
:1015C0004FFA4CCA4EFA000106DFD8900A014B359B
:1015D000036ABA0FE96E010E0320EA6EECCF4DFAF2
:1015E000ED52EFCF4CFA4DCA4FFA4CCA4EFA0001F9
:1015F000E7DE28D0D8900A014B35036AC20FE96EA6
:10160000010E0320EA6EECCF4DFAED52EFCF4CFA0B
:101610004DCA4FFA4CCA4EFA0001DDDED8900A01DD
:101620004B35036ABA0FE96E010E0320EA6EECCF68
:101630004DFAED52EFCF4CFA4DCA4FFA4CCA4EFA62
:101640000001C9DE28D00A01D8904B35036ABA0FD1
:10165000E96E010E0320EA6EECCF4DFAED52EFCFAA
:101660004CFA4DCA4FFA4CCA4EFA0001A9DED89086
:101670000A014B35036AC20FE96E010E0320EA6EC0
:10168000ECCF4DFAED52EFCF4CFA4DCA4FFA4CCA9F
:101690004EFA000195DE28D0D8900A014B35036A36
:1016A000BA0FE96E010E0320EA6EECCF4DFAED524F
:1016B000EFCF4CFA4DCA4FFA4CCA4EFA000180DE09
:1016C000D8900A014B35036AC20FE96E010E032060
:1016D000EA6EECCF4DFAED52EFCF4CFA4DCA4FFA0D
:1016E0004CCA4EFA00016CDE0A014B2B0CD70201EA
:1016F000175306E01A6B0CC2CFFF0BC2CEFF06D009
:10170000690ECF6ECE6800017F8F02019E900001AE
:1017100054EF00F08D928D948F968F928F908D9ACA
:101720008F988F9495EF0BF0F5D70101B55302E137
:101730008E9E01D08E8EB52D02D08D9601D08D86D5
:10174000B551020802E18D9801D08D88B55103088A
:1017500002E18D9001D08D80B55302E1B6C14BFA04
:10176000B52D02D0B7C14BFAB551020802E1B8C19C
:101770004BFAB551030802E1B9C14BFA0A014BB16A
:101780008D824BB38D844BB58F864BB78F824BB90F
:101790008F804BBB8D8A4BBD8F884BBF8F84010ED2
:1017A0000101B525030BB56F0001DCEF0BF07F8B5A
:1017B0000201452B0001B8D79E9254EF00F00201C0
:1017C0004FB313D04D5302E14E5307E04EC24CF2DB
:1017D0004DC24BF24E6B4D6B4F855551552B320818
:1017E00003E2546B536B556B13D04B51535D03E1C4
:1017F0004C51545D0DE04B51950805E14C5303E10C
:1018000000013BDD02014CC254F24BC253F2556B56
:101810004F93A192000154EF00F002014F834FA1BA
:101820000BD0B66A050EB66EB96ABA6A4F91B8CFD8
:1018300051F2B7CF50F25AD0B66A040EB66EB96AFA
:10184000BA6A4F815151B85C0FE303E1B750505D64
:101850000BE25051B75C0A014A6F02015151B8586E
:101860000A014B6F11D00201FF0ED88050550A01BA
:101870004C6FFF0E020151550A014D6FB7504C25B8
:101880004A6FB8504D214B6F4B510B080AE303E1EF
:101890004A51B70806E302014E6B4D6B526B26D0DE
:1018A0000A014B51130808E303E14A51870804E396
:1018B0000201522B1BD00A014B51230813E303E111
:1018C0004A5127080FE3010E006E02015251016ECA
:1018D00004E0D8900036012EFCD700504D13522B57
:1018E00005D00A0102014E6B4D6B526BA1900001B5
:1018F00054EF00F0090EEA6E2B0EE96EEF500EE089
:101900000F0E016E006A002EFED7012EFBD78F0E40
:10191000006E002EFED70000EF2EF2D71200656A8F
:101920000F015C6B080E5F6F975018090201976EEC
:10193000226A196AF2BE198EF29E00011BEC02F0B7
:1019400019BEF28EA5EF0CF0EAD71200196AF2BEAA
:10195000198EF29E1BEC02F019BEF28E656A140E0F
:101960000F015F6F5C6B6586010E226E0001BCEF9C
:101970000CF065B601D0EAD7222C0DD065BA0BD099
:10198000626A0F015C6BA088C00EF212110E5C6FD0
:10199000020E226E00011200D7DFEBDF2250020898
:1019A000FCE19CEF0EF07CB101D0FDD77E517E2B87
:1019B000A30FE96E040EEA6ED8B0EA2AEFCFE5F283
:1019C0007D517E5D08E3196AF2BE198EF29E6DECC0
:1019D00007F019BEF28E0201E5C201F0000112000B
:1019E0000201E651400809E2E651460806E3410ECD
:1019F000E65D0A0F016E0AD009D0E6512F0806E213
:101A0000E651390803E3300EE65D016E0001120075
:101A1000CADF01C0E4F201C0E6F2E2DF01380201F0
:101A2000E46FF00EE4170001BEDF01C0E5F201C073
:101A3000E6F2D6DF01500201E425016E000112003A
:101A40002BC901F02AC900F00066012A0900F5CF70
:101A5000EEFF002EFBD7012EF9D7F86A1200F250E4
:101A6000036EF29EA6840F01550EA76EAA0EA76EF6
:101A7000A68200000350F21200011200D08CF65032
:101A80003F0B006EC00EF6160A002EC901F000666C
:101A90000BD0F650010F08E1000EF720030B04E114
:101AA000A6880900DCDF0A00006607D0EECFF5FF4C
:101AB000015204E00F00010603D000060B000C00E9
:101AC0003F0EF6143F0AE3E1CADF0166E0D7F86A89
:101AD00012000201F181F86AE4C2F7FFE3C2F6FFE7
:101AE000050EEA6E230EE96E040E09012B6F2A6BB8
:101AF0000001A6DF000ED8800201E555006E040E3D
:101B0000E655036E00C001F00350E85D0CE303E10D
:101B1000E751015C08E2000ED880E555EF6F040E36
:101B2000E655F06F04D0E8C2F0F2E7C2EFF2E6C289
:101B3000ECF2E5C2EBF2EE6BED6BEE51F05D26E3FD
:101B400003E1EF51ED5D22E2230EEB25016E050E60
:101B5000EC2101C0F2F2F36FED51E925016EEE5177
:101B6000EA2101C0E9FFEA6EEFCFF4F2F3C2EAFF27
:101B7000F2C2E9FFF4C2EFFFECC203F0EB51EB2B32
:101B8000D8B4EC2BED2BD8B4EE2BD7D7EC6BEB6B9A
:101B9000EC5347E1EB510F0844E3F29CF29EF2BE96
:101BA000FDD7EB35026EEC35036E02360336023696
:101BB0000336023603360236033602360336C00ECB
:101BC00002160250E325F26F0350E421F36FEB3568
:101BD000026EEC35036E02360336023603360236E9
:101BE00003360236033602360336C00E02160250A2
:101BF000230FF46F050E0320F56FF86AF3C2F7FFA9
:101C0000F2C2F6FFEA6EF4C2E9FF400E09012E6F40
:101C1000000134DFC00EF2120201EB2BD8B4EC2B22
:101C2000B7D7E751E525F26FE851E621F36F0308D6
:101C300020E2FF0A03E1F25100081BE2040EE42750
:101C4000000ED880E555006E040EE655036E005078
:101C5000E75F0350E85B000ED880E555006E040E88
:101C6000E655036E0050E9270350EA23E66BE56B67
:101C700001D0F191F1B12FD7000112009EA8FED73B
:101C8000AE6E89EF0EF00201E691F2BEE681F29EA1
:101C900000017B513E0802E23E0E7B6F7B517B2BA5
:101CA000036A3C0FE96E000E0320EA6EE5C2EFFF07
:101CB000F29E0201E6B1F28E000162EF0EF0E4C284
:101CC000E5F2E1D7196AF2BE198EF29E020E0A0100
:101CD0005B6F00015FEC06F019BEF28E015208E066
:101CE000196AF2BE198EF29EF5EC07F019BEF28E5B
:101CF00081EF0EF07B513E0801E2FCD7E3C2E4F233
:101D0000DED792EF0EF002019C2D05D0E2510001CA
:101D1000B5D708D002019C51020805E1E2C2E3F206
:101D20000001E8D70201000112000201B781BC6B7B
:101D3000B793C56B000130D67FA1FED70201B7A1D2
:101D400098D000017CA1FED72EDE01503A08FAE1BE
:101D50005FDE01C0B8F25CDE0201E36B01C0E2F2BB
:101D600001C0E3F2E26B000153DE01500201E22503
:101D7000B96F000EE321BA6F000115DE14DE01C059
:101D8000BBF20201BB51310802E1B7916AD0BB51ED
:101D9000340813E100013CDE0201E26B000138DE91
:101DA00001500201E225C36FC46BC35302E1C45367
:101DB00002E0B78301D0B79354D0BB51300851E152
:101DC000B7B34FD0BC6BB851BC5D15E2036ABC51D0
:101DD000A70F016E020E032201C0E2F203C0E3F27C
:101DE000000116DEE3C2EAFFE2C2E9FF01C0EFFF35
:101DF0000201BC2BE8D7000B006E036A00500310F1
:101E000019E0036AC551CC0FE96E020E0320EA6E99
:101E1000B9C2EFFF036AC551C60FE96E020E032077
:101E2000EA6EB8C2EFFFC551100DF3CFB9F2580EEC
:101E3000BA6FC52BB9C2BEF2BF6BBA51FC0BC06FF3
:101E4000C0C2E4F2BFC2E3F2E66BBEC2E5F2E86BE9
:101E5000B8C2E7F2020EEA6FA70EE96F000139DEA1
:101E60000201B7A105D0110EE26F00014CDF0201A3
:101E700066D7550EE26F000146DF640E09012B6F35
:101E8000000138DDF29CF29EF2BEFDD70201BC6B70
:101E9000C551BC5D3AE2BC51100DF3CFE2F2580ED1
:101EA000E36FF86AF76EE2C2F6FF020EEA6ED20E38
:101EB000E96E09012B6B100E2A6F0001C1DD036A68
:101EC0000201BC51CC0FE96E020E0320EA6EBA6B20
:101ED000EFCFB9F2036ABC51C60FE96E020E0320C0
:101EE000EA6EEFCFE2F2E46BE36BBAC2E6F2B9C29C
:101EF000E5F2E86BE2C2E7F2020EEA6FD20EE96F9A
:101F00000001E7DD0201BC2BC3D78B90640E0901F1
:101F10002B6F0001EFDCFF003CEF28F00101F96BB3
:101F2000010ECA6F02010A950001826B0101046B68
:101F30000001836BF2CFA7F2F29EF86AF90EF76EFA
:101F4000F00EF66E0900F5500800F5CF03F0F86AC0
:101F50000201A7BFF28E0101A96F03C0AAF100011F
:101F60003EEF28F08D9C8A920201A96BAA6BA951C1
:101F7000030838E3D890A935036ABA0FE96E010E59
:101F80000320EA6EECCFACF2ED52EFCFABF2196A60
:101F9000F2BE198EF29EACC24FFAABC24EFA0001ED
:101FA000E0EC09F019BEF28ED8900201A935036A5F
:101FB000C20FE96E010E0320EA6EECCFACF2ED52D7
:101FC000EFCFABF2196AF2BE198EF29EACC24FFA95
:101FD000ABC24EFA0001E0EC09F019BEF28E02012C
:101FE000A92BC5D700011200948694886AEF10F0DF
:101FF000320EBC6E8B8209012B6F00017BDCBC6A48
:10200000320E09012B6F000175DC8B92320EBC6E13
:102010008B8009012B6F00016DDCBC6A320E090157
:102020002B6F000167DC8B906BEF10F00101FD6BF3
:102030002F0E926E010E936E900E946E000E956EA2
:10204000800E966E7C0E976E000E986EC088600EA5
:10205000C16EC098C29CC29EC088F30EC26EC0986A
:10206000C150C00B3E09C16EC18EC280C18CC282FC
:10207000C2B2FED7C19CFB6B000E016EC250C30BF7
:102080000110C26E00016EDF860ED56EDB0ED76EBC
:10209000610ED66EF28AA10ECD6E9D80CF6ACE6A99
:1020A000380E0609CA6EFA0ECB6E9D829D0E796EB1
:1020B0007B6A7A6AA082B66A040EB66EB96ABA6A98
:1020C000A0808B940C0EBB6EBE6ABF6A9D8AC00E48
:1020D000F2128AD78DD7020E0201A96FFA0E0901FA
:1020E0002B6F000107DC0201A92FF8D700012CDCBF
:1020F00040EF28F002014251415D02E1000E01D0A3
:10210000010E016E000112000201432D0BD0436B42
:10211000020EAD6F416B426BABC2E9FFACC2EAFF8E
:10212000EF6A22D04151425D07E1AD6BABC2E9FFDE
:10213000ACC2EAFFEF6A18D0ACC203F0036A4251A6
:10214000210FE96E020E0320EA6EEFCFB0F2ACC2AF
:10215000EAFFABC2E9FFB0C2EFFF422B42511F08BA
:1021600001E2426B010EAD6FADC201F00001C0EFA4
:1021700010F0020E0201AC6FAA0EAB6F0001C4D7C3
:102180000201AAC201F0000171EF12F0E7C299F258
:10219000E6C298F20201986BFC0E99179851E65D21
:1021A000966F9951E759976F9B6B9A6B00011200DC
:1021B0000201ADC203F0AC51D8B4AD07AC07AE6FAD
:1021C00003C0AFF2AE5302E1AF5328E0ABC203F05D
:1021D000AA51AA2BD8B4AB2BAE6F03C0AFF2D890E4
:1021E000AE35026E0334036EE80E0324AF6FF2CFF8
:1021F000B0F2F29EF86AF76E02C0F6FF0900F550E1
:102200000800F5CF03F0F86AB0BFF28EAE6F03C0DE
:10221000AFF2E26F000177DDCBD702010001CCEF16
:1022200013F0320EBC6E09012B6F00017AEC0CF03A
:10223000BC6A12000201F281E55157080FE3000168
:10224000F0DF040E0201F36FFA0E09012B6F00019B
:102250007AEC0CF00201F32FF7D7F1D7F86AE5C258
:10226000F7FFE4C2F6FF050EEA6E230EE96E040ED8
:1022700009012B6F2A6B000120EC0DF0B9EC0CF07A
:10228000000ED8800201E655006E040EE755036E7D
:1022900000C001F00350E95D0CE303E1E851015C8B
:1022A00008E2000ED880E655F06F040EE755F16F96
:1022B00004D0E9C2F1F2E8C2F0F2E7C2EDF2E6C200
:1022C000ECF2EF6BEE6BEF51F15D26E303E1F051C1
:1022D000EE5D22E2230EEC25016E050EED2101C01C
:1022E000F3F2F46FEE51EA25016EEF51EB2101C0DC
:1022F000E9FFEA6EEFCFF5F2F4C2EAFFF3C2E9FFBD
:10230000F5C2EFFFEDC203F0EC51EC2BD8B4ED2B8E
:10231000EE2BD8B4EF2BD7D70001B9EC0CF00201AB
:10232000ED6BEC6BED5344E1EC510F0841E3EC3500
:10233000026EED35036E0236033602360336023680
:1023400003360236033602360336C00E021602503A
:10235000E425F36F0350E521F46FEC35026EED35A3
:10236000036E023603360236033602360336023671
:10237000033602360336C00E02160250230FF56FE5
:10238000050E0320F66FF86AF4C2F7FFF3C2F6FFFA
:10239000EA6EF5C2E9FF400E09012E6F00013EEC26
:1023A0000DF0B9EC0CF00201EC2BD8B4ED2BBAD740
:1023B000E851E625F36FE951E721F46F030820E2C5
:1023C000FF0A03E1F35100081BE2040EE527000EAB
:1023D000D880E655006E040EE755036E0050E85FA6
:1023E0000350E95B000ED880E655006E040EE755F9
:1023F000036E0050EA270350EB23E76BE66B01D036
:10240000F2910001B9EC0CF00201F2B127D7000102
:1024100021EF12F002019A5302E19B5324E099C28A
:10242000E5F298C2E4F297C2E7F296C2E6F29BC2E6
:10243000E9F29AC2E8F2020EEB6F560EEA6F000163
:10244000F9D6020196519825E46F97519921E56FCD
:102450009A51E4279B51E523E5C2E7F2E4C2E6F294
:10246000000194DE02010001120002019BC203F090
:102470009A519A2BD8B49B2BE46F560EE425E96E43
:10248000020E0320EA6EE2C2EFFF9BC203F09A51F4
:102490009A2BD8B49B2BE46F03C0E5F2560EE425CB
:1024A000E96E020E0320EA6EE351EF6E9B5303E1E7
:1024B0009A513F0803E20001ADDF02010001120062
:1024C0000201A88100017CB104D014DE0152D8B40D
:1024D000B1D110DE015209E0010E02019C6F000132
:1024E00048D601C0A7F28B700AD07CA108D0020E9A
:1024F00002019C6F0001D3EC0CF001C0A7F20201B5
:10250000206BA7C21BF20A83A7C2E2F2000183EC90
:102510000EF00101CA51010A00012BE0030AD8B4F0
:1025200075D0010AD8B47BD0070AD8B4A7D0010A65
:10253000D8B4ABD0030AD8B4AAD0010AD8B4AFD06B
:10254000870AD8B4C4D0010AD8B4CBD0030AD8B40F
:102550000DD1010AD8B412D1070AD8B426D1010A84
:10256000D8B42BD1030AD8B430D1010AD8B44BD196
:1025700055D10201A751540A00010BE0D70A0EE021
:10258000070A14E0010A19E0030A1EE0010A29E023
:102590002ED0020E0101CA6F000129D0800E010168
:1025A000CA6F0201A8918B70000121D0820E010137
:1025B000CA6F0201A89100011AD0840E0101CA6FEE
:1025C0000201A891000113D08B8202011D6B1C6BCC
:1025D00000017F9324EC09F002010A930A850001AF
:1025E00006D0870E0101CA6F0201A8910001020105
:1025F000A8B10BD0196AF2BE198EF29E000131EC1F
:1026000009F019BEF28E0201A8810CD10201A75176
:10261000FE0804E1030E0101CA6F020103D10201A9
:10262000A751E00B006E00380101CB6FCB33070ED2
:10263000CB170201A7511C0B006E00300101CC6FBB
:10264000CC333F0ECC170201A751030B0101CD6F14
:1026500000017F970201A73D06D0060E0101CA6F57
:1026600000017F8709D00101CB51030803E2040E6A
:10267000CA6F02D0050ECA6F0201D4D0A7C2CEF134
:10268000050E0101CA6F0201CDD00201CBD0A7C255
:10269000EFF10101F06B070ECA6F0201C3D0010117
:1026A000F05303E1A7C2CBF10AD0010EF05D036A3B
:1026B000CF0FE96E010E0320EA6EA7C2EFFFF02BE9
:1026C000EF51F05D02E1050ECA6F0201ABD00201CD
:1026D0004F89A7C2ACF10101AB6B810ECA6F020139
:1026E000A1D00201A7510101AB13010ECA6FD8900E
:1026F000AB37AC37AC310201AB6F0101AB3102013A
:10270000AA6FAB33AA33AB33AA33AB33AA33AB33A1
:10271000AA33070EAB17AA3D1BD0AB5319E1010139
:10272000AB510F0B006E036A0050E00F0201AA6F5D
:10273000F90E0320AB6F000EAA5D0101AB6FE80E2E
:102740000201AB590101AC6F8B8002014F874F9999
:10275000ABC1AAF2E80E0101AC250201AB6FE76F35
:10276000ABC1E6F2000112DD02015CD0A7C2AEF1FE
:102770000101AD6B830ECA6F020154D00201A75153
:102780000101AD13ACC1ABF2ABC1AAF2AEC1ADF267
:10279000ADC1ACF200010CD50101AD51AB27AE517A
:1027A000AC23010ECA6F02013DD0A7C2AEF10101F8
:1027B000AD6B850ECA6F020135D00201A751010130
:1027C000AD13860ECA6F02012DD00201E36BA7C2C2
:1027D000E2F200014ADE0101AD51D8B4AE07AD2FDF
:1027E00007D0AE5305E1000115DE010E0101CA6FED
:1027F000FF0ED8800201A755AA6FE26F000183EC9B
:102800000EF002010FD0370E0201E26F000183ECDF
:102810000EF0010E0101CA6F020104D0010E010188
:10282000CA6F02010101CA51050802E1000102D08C
:10283000020148D6000165EF28F00201E235006E82
:102840000036FC0E0016C250C30B0010C26E000111
:102850005AEF14F0010E0201E45F0DE3020EEA6E7E
:10286000E40EE96EEF5007E0020E006E002EFED778
:1028700000D0EF2EF9D700011200640E0201E46FC0
:102880000001E8DFC282C2B2FED7C4CFE3F2020188
:10289000C3CFE2F2E2C201F0E3C202F000015EEF58
:1028A00014F00201E1510101FB5D06E0E1C2E2F238
:1028B0000001C3D7E1C2FBF10001DFD702501200D3
:1028C000E8C203F00201E7C2E9FFE8C2EAFF010E35
:1028D000006EE951016E04E0D8900036012EFCD75D
:1028E0000050FF0AEF14EF6E00011200EBC203F07C
:1028F0000201EAC2E9FFEBC2EAFF010E006EEC51F1
:10290000016E04E0D8900036012EFCD70050EF1085
:10291000EF6E000112000201E36BE351030824E3B0
:10292000FDC100F00201E351016E04E0D8900032D5
:10293000012EFCD70050010B15E0E2530AE1010E15
:10294000E86FFC0EE76FE3C2E9F20001B9DF09D0DE
:102950000201010EEB6FFC0EEA6FE3C2ECF2000124
:10296000C5DF0201E32BD9D700011200D890020184
:10297000E837E85302E18D8C01D08A820001120011
:10298000D8900201E231E36FE86F0001EFDF010E42
:102990000201EB6FEA69E2C2ECF20001A7DFAEEFE1
:1029A00015F0D8900201E235036ABA0FE96E010E04
:1029B0000320EA6EECCFE6F2ED52EFCFE5F2D890CD
:1029C000E235036AC20FE96E010E0320EA6EECCF16
:1029D000E4F2ED52EFCFE3F2196AF2BE198EF29EE5
:1029E000E4C24FFAE3C24EFA0001EBEC09F019BE63
:1029F000F28E196AF2BE198EF29EE6C24FFAE5C255
:102A00004EFAEBEC09F019BEF28E010E0201E86FEE
:102A1000E769E2C2E9F2000153DFD8900201E23136
:102A2000E76FE86F0001A2DFB3EF15F0196AF2BE9D
:102A3000198EF29EFEC14CFAE2C24DFAB0EC09F0DA
:102A400019BEF28E01520AE0010E0201E86FFE0E7D
:102A5000E76FE2C2E9F2000133DF09D0010E0201A3
:102A6000EB6FFE0EEA6FE2C2ECF200013FDFB8EF5F
:102A700015F0010E0201EB6FFE0EEA6FE2C2ECF2FE
:102A8000000134DFBDEF15F0010E0201E86FFE0E0C
:102A9000E76FE2C2E9F2000113DFC2EF15F0D89050
:102AA0000201E437E45302E18D9C01D08A920001D7
:102AB0008AEF15F0010E0201E86FE769E2C2E9F260
:102AC0000001FEDE0201E251020B016E0101FFC1B5
:102AD00000F0015204E0D8900032012EFCD70050E3
:102AE000010B19E10201E251020B010F016E01011C
:102AF000FFC100F0015204E0D8900032012EFCD753
:102B00000050010B08E1D8900201E231E36FE46F5D
:102B10000001C5D701010201CAEF15F00201E16B06
:102B2000E151030839E3FDC100F00201E151016EFA
:102B300004E0D8900032012EFCD70050010B2AE0AF
:102B4000E26B0001E8DE0201E051FA0F23E2060F1A
:102B50000001CEEF15F0E1C2E2F212D702011AD065
:102B6000E1C2E2F21ED7020115D0E1C2E2F25ED765
:102B7000020110D0E1C2E2F27CD702010BD0E1C227
:102B8000E2F282D7020106D0E1C2E2F293D702015B
:102B900001D00201E12BC4D700011200E824F76A3A
:102BA000F736B70FF66E2B0EF7220A00F550FA6EC5
:102BB0000800F550F96E562B602B6A2B742B7E2B78
:102BC000882B0201E36BE351030851E3FDC100F0E0
:102BD0000201E351016E04E0D8900032012EFCD7CF
:102BE0000050010B42E0010EE25DF90F20E2070FF9
:102BF000000139EF16F0240E0201E26F18D0490EE1
:102C00000201E26F14D06E0E0201E26F10D0920E3C
:102C10000201E26F0CD0B70E0201E26F08D0DB0EAA
:102C20000201E26F04D00201E26901D00201036AED
:102C3000E3C2E9FF020E0324EA6EE2C2EFFF036A79
:102C4000E351050FE96E020E0320EA6EEF50E25DDC
:102C50000CE000017F8D036A0201E351050FE96E6C
:102C6000020E0320EA6EE2C2EFFFE32BACD70001B5
:102C70001200E824F76AF7368D0FF66E2C0EF72255
:102C80000A00F550FA6E0800F550F96EF62BFE2B8F
:102C9000062C0E2C162C1E2C262CE0C2FDF1120048
:102CA000A7C2F9F10201A85303E000017F8902D015
:102CB00000017F99B2EF28F0C69E9E96ECC2C9FF34
:102CC000020EC6BE05D09EA6FED7000EC5BC010EE4
:102CD000016E1200C69CC586C5B6FED700B0C59A67
:102CE00000A0C58AC588C5B8FED7C9CF01F01200BB
:102CF000E1C2E3F2E0C2E2F235EC12F00AEC12F0CB
:102D000012000201A751FA0FD8B06AD0060F0001D5
:102D100004EF17F00201A85302E18B8001D08B90E1
:102D20005FD011EC11F002015BD00201E06B0001F9
:102D3000F5DE030E0201E06F0001F0DE010E02017C
:102D4000E26F0001E8DDA9C2E2F23BDF020148D0F8
:102D5000020146D00201A851FC0F1AE2040F000143
:102D6000F3EF16F002010A8FC580C5B0FED710D070
:102D7000C584C5B4FED702010A9F0AD0A9C2ECF2ED
:102D80009BDF020105D0006AA5DF020101D002012C
:102D900027D00201A951010A000103E0010A10E055
:102DA0001CD0F90E0201E76FF20EE66F0001C6ECCF
:102DB00010F00201E16B010EE06F000199DF0DD010
:102DC000F90E0201E76FF20EE66F0001C6EC10F09B
:102DD0000201E16BE06B00018BDF020101D0020117
:102DE0000101BFEF28F0E824F76AF736010FF66E0D
:102DF0002E0EF7220A00F550FA6E0800F550F96E13
:102E0000642D702D7C2D862DE824F76AF736230F6C
:102E1000F66E2E0EF7220A00F550FA6E0800F550F5
:102E2000F96E142D222D2A2D502D542D922D149AE9
:102E3000149C149E148A1200C580C5B0FED7E4C24B
:102E4000E8F2E4C2ECF2000137DF015204E0EFDF08
:102E5000000E016E1ED0E5C2ECF22EDFC582C5B2B7
:102E6000FED70201E4510109E86FEC6F000124DF95
:102E7000E7C203F00201E6C2E9FFE7C2EAFF006A27
:102E8000000128DF01C0EFFFC584C5B4FED7010EE5
:102E9000016E1200E4C2E5F2D8900201E533780E2B
:102EA000E517E531006E00323F0E00160050E525B3
:102EB000E66FE4510F0BE625016E000174EF17F089
:102EC000D00E0201E46FE2C2E5F2020EE76FE30EFC
:102ED000E66F0001B1DF012C01D003D0640E016E5A
:102EE00004D0E3C2E4F2D6D701501200C580C5B0C9
:102EF000FED7E1C2E4F2E1C2ECF20001DDDE0152F4
:102F000004E095DF000E016E0BD0E2C2ECF2D4DEDD
:102F1000E3C2ECF2D1DEC584C5B4FED7010E016E6A
:102F20001200036A0201E0C2E9FF03C0EAFFEFCF2B
:102F3000E1F2D00EE46FE56BE76BE1C2E6F200016F
:102F40007BDF0201E09F130E006E002EFED700D043
:102F5000D00EE16FE26BE0C2E3F20001C7DF036A6B
:102F60000201E0C2E9FF03C0EAFFEFCFE1F2D00EB9
:102F7000E46F020EE56FE76BE1C2E6F200015CDF91
:102F80000201E09D130E006E002EFED700D0D00E81
:102F9000E16F020EE26FE0C2E3F20001A7DFD00EA4
:102FA0000201E16F070EE26F100EE36F00019EDF7A
:102FB0001200AAC2ABF20201AC6BAB51090805E2E8
:102FC0000A0EAB5F100EAC2703D0AB51AC2701D07B
:102FD000F4D7ACC201F00001F1EF17F0A9C2AAF2D8
:102FE000E8D701C0AAF2D00E0201E16FA8C2E2F256
:102FF00001C0E3F200017ADFDCEF29F07FAB41D0C2
:103000000101F9C100F0FA51016E04E0D8900032DC
:10301000012EFCD70050010B2EE0036AFA51F10F8C
:10302000E96E010E0320EA6EEFCFA9F2A9C2E1F228
:10303000000137DC02C0A8F201C0A7F20101FA3991
:103040000201A96FA937E00EA917A851036AA913B5
:1030500003C0AAF2A7C2ABF2AC6B0C0EE26F000188
:1030600083EC0EF0A9C2E2F283EC0EF0ABC2E2F206
:1030700083EC0EF00101010EFA25070BFA6F000137
:103080007F9BEBEF29F00201A76BA86BAB6BA96BE1
:10309000A951030830E3036AA951470FE96E020EF4
:1030A0000320EA6EEFCFAAF2C580C5B0FED7AAC250
:1030B000ECF2000101DE01C0A8F20201A85302E017
:1030C000000E01D0010EA86FA8530BE0AAC2ABF20C
:1030D000010EEC6F0001F0DDC584C5B4FED702011E
:1030E0000AD0C584C5B4FED7270E006E002EFED7C9
:1030F00000D0A92BCDD7ABC201F00001DAEF18F058
:10310000036A02019D51F10FE96E010E0320EA6E80
:10311000EFCFAAF2AAC2E1F2000151EC14F002C012
:10312000A8F201C0A7F20201A851030804E305E1D7
:10313000A751FB0802E29D5329E1C580C5B0FED727
:1031400046C2ECF20001B8DD040E0201EC6F000192
:10315000B3DD0201A851AA6F9D39006E0036E00E62
:1031600000160050AA11A96FA9C2ECF20001A4DD5B
:103170000201A7C200F0036AA7C2AAF2A7C2ECF23A
:1031800000019ADDC584C5B4FED702019D2B070E50
:103190009D170001EFEF18F002010AAF01D021D016
:1031A0004FA901D01ED044510A0810E20AAD0ED03A
:1031B000000169D701C046F20201465302E0010E48
:1031C00001D0000E0A9BE8B00A8B446B45510308FE
:1031D00008E20ABB02D00ABD04D0000191D7020167
:1031E000456B0001EDEF29F00201E36BE46BE56B49
:1031F000E769E86BE96B1A6BE3510F08D8B48AD022
:10320000E46BE45103084AE3196AF2BE198EF29E98
:10321000E3C24CFAE4C24DFA0001B0EC09F019BE69
:10322000F28E015201E037D0036A0201E4C2E9FFE5
:10323000020E0324EA6EEFCFE6F2E63D01D002D0A3
:10324000E6530BE1020EEB6FE30EEA6FE4C2ECF221
:10325000000176EC14F01FD00201E751E65D0CE2AC
:10326000E6C2E7F2010EE86FE451016E04E0D89087
:10327000E837012EFCD70ED0E751E65D0BE1010ED9
:10328000006EE451016E04E0D8900036012EFCD7A8
:103290000050E81300010201E42BB3D7E851E31317
:1032A000E73D01D036D0D890E535036A0B0FE96EC3
:1032B000020E0320EA6EE951E75DED6BEC6F196ACF
:1032C000F2BE198EF29EEDC25DFAE8CF5CFA0A01F9
:1032D0005F6B960E5E6F000185EC01F019BEF28EF9
:1032E00002C003F00150FF08006EFF0E035600C03D
:1032F000EFFF03C0ECFF036A0201E551130FE96E13
:10330000020E0320EA6EE8C2EFFFE7C2E9F2E769C6
:10331000E52B72D7E5C217F2E5531CE0EB6BE9C26F
:10332000EAF2196AF2BE198EF29EEBC25DFAE9C2A8
:103330005CFA0A015F6B960E5E6F000185EC01F08E
:1033400019BEF28E0150FF0F0201186F690E0220A4
:10335000196F03D0690E196F1869000112007FAF51
:1033600004D07FAD02D040DF7F9DEFEF29F07FA337
:1033700005D07F93330E016E28D027D00101ACC158
:1033800003F0AB51AB2BD8B4AC2B0201B66F03C02A
:10339000B7F2D890B635026E0334036EE80E0324FC
:1033A000F2CFB8F2F29EF86AF76E02C0F6FF09009B
:1033B000F5500800F5CF03F0F86AB8BFF28EB46F8D
:1033C00003C0B5F2B4C201F00001120001010453C0
:1033D00011E00407D8900435036A050FE96E010E69
:1033E0000320EA6EEFCF01F0E92AEF50E906026E02
:1033F0001FD01ED0000183878B92020E0201B26F94
:10340000FA0E09012B6F00017AEC0CF00201B22FC9
:10341000F7D78B82020EB26FFA0E09012B6F0001F3
:103420007AEC0CF00201B22FF7D70001E5D70101C9
:1034300000011200825311E08207D8908235036A9E
:10344000840FE96E000E0320EA6EEFCF01F0E92A47
:10345000EF50E906026E17D016D083838B92040ECC
:103460000201E66FFA0E09012B6F00017AEC0CF0F5
:103470000201E62FF7D78B82640E09012B6F000142
:103480007AEC0CF0EBD71200010104513F0812E373
:103490000451042B006ED89000360050036A050FCB
:1034A000E96E010E0320EA6EB5C2ECFFED52B4C224
:1034B000EFFF1ED08B92020E0201B66FFA0E0901C9
:1034C0002B6F00017AEC0CF00201B62FF7D78B823C
:1034D000020EB66FFA0E09012B6F00017AEC0CF0A8
:1034E0000201B62FF7D70101E5D70001838501015D
:1034F0000001120082513F0812E38251822B006EBC
:10350000D89000360050036A840FE96E000E032045
:10351000EA6EE3C2ECFFED52E2C2EFFF17D08B92EE
:10352000640E09012B6F00017AEC0CF08B82040E03
:103530000201E46FFA0E09012B6F00017AEC0CF026
:103540000201E42FF7D70001EAD7838112000201BC
:10355000BA6BBB6B010EBC6FDA6AD96A020EBF6F21
:10356000B20EBE6F020EEA6EB60EE96EBFC2E2FF89
:10357000BEC2E1FFBCC2BDF2D890E550EE02F350EE
:10358000BA23F450BB23BD2FF7D7BAC2DEFFBBC2AC
:10359000BAF2BB6BD8B0BB2BBE2BD8B4BF2BBC2BA5
:1035A000BC510508DFE100010CEF1BF0016A026A63
:1035B000006A036A0201E85102E1E75118E0100EC7
:1035C000E96FD890E537E63700360336E851035CFB
:1035D00002E1E751005C07E3E751005ED8A0030673
:1035E000E851035ED88001360236E92FEAD70001A0
:1035F0001200B4C1B5F2B3C1B4F2B2C1B3F2B1C1F9
:10360000B2F2410E0201B96FC60EB86F4E0EB76F1F
:103610006D0EB66F00019BD7390E02010024010127
:10362000B16F300E020101200101B26F000E0201E4
:1036300002200101B36F000E020103200101B46FEB
:10364000B3C100F0B4C101F0026A036AB4C1B4F2BC
:10365000B3C1B3F2B4C1E6F2B3C1E5F27F0E020129
:10366000E86FE7690001A2DF00C001F003C002F0CB
:103670002CEF25F08B82320E09012B6F00017AECC2
:103680000CF08B92020E0201E06FFA0E09012B6F13
:1036900000017AEC0CF00201E02FF7D70001EAD725
:1036A00012000201E26BE251030821E3FDC100F0C8
:1036B0000201E251016E04E0D8900032012EFCD7E5
:1036C0000050010B12E0036A020E032603C0E4F26D
:1036D000036AE2C2E9FF020E0324EA6EE151EF241D
:1036E000E4C2EAFFE2C2E9FFEF6EE22BDCD70001A1
:1036F0007BDD1200006A016A0201E051D890E1B15D
:10370000002600320132E1B3002600320132E1B579
:10371000002600320132E1B7002600320132E1B961
:10372000002600320132E1BB002600320132E1BD49
:10373000002600320132E1BF0026003201320001D2
:10374000B1EF20F00201F051000A0001D8B4BED060
:10375000300AD8B4BBD0310AD8B4BCD0300AD8B4FF
:10376000B9D0330AD8B4BAD0300AD8B4B7D0310AF5
:10377000D8B4B8D0300AD8B4B5D0370AD8B4B6D097
:10378000300AD8B4B3D0310AD8B4B4D0300AD8B4DF
:10379000B1D0330AD8B4B2D0300AD8B4AFD0310ADD
:1037A000D8B4B0D0300AD8B4ADD03F0AD8B4AED077
:1037B000300AD8B4ABD0310AD8B4ACD0300AD8B4BF
:1037C000A9D0330AD8B4AAD04B0AD8B4ABD0200AB7
:1037D000D8B4A8D0230AD8B4A9D0200AD8B4A6D087
:1037E000210AD8B4A7D0200AD8B4A4D0270AD8B4C4
:1037F000A5D0200AD8B4A2D0210AD8B4A3D0200AD8
:10380000D8B4A0D0230AD8B4A1D0200AD8B49ED06E
:10381000210AD8B49FD0200AD8B49CD02F0AD8B49B
:103820009DD0200AD8B49AD0210AD8B49BD0200ABF
:10383000D8B498D0230AD8B499D0200AD8B496D056
:10384000260AD8B497D0200AD8B494D0220AD8B483
:1038500095D0200AD8B492D0210AD8B493D0200AA7
:10386000D8B490D03F0AD8B491D0200AD8B48ED022
:10387000210AD8B48FD0200AD8B48CD0230AD8B467
:103880008DD0200AD8B48AD0210AD8B48BD0200A8F
:10389000D8B488D0270AD8B489D0200AD8B486D022
:1038A000210AD8B487D0200AD8B484D02C0AD8B43E
:1038B00085D0200AD8B482D0050AD8B483D05C0A57
:1038C000D8B484D0370AD8B481D080D03F0E016EEE
:1038D00080D07FD0060E016E7CD07BD05B0E016E57
:1038E00078D077D04F0E016E74D073D0660E016E13
:1038F00070D06FD06D0E016E6CD06BD07D0E016EEE
:1039000068D067D0070E016E64D063D07F0E016E61
:1039100060D05FD06F0E016E5CD05BD0000E016E88
:1039200058D057D0770E016E54D053D07C0E016E14
:1039300050D04FD0390E016E4CD04BD05E0E016E80
:1039400048D047D0790E016E44D043D0710E016E3D
:1039500040D03FD03D0E016E3CD03BD0760E016E84
:1039600038D037D0040E016E34D033D00E0E016E35
:1039700030D02FD0380E016E2CD02BD0540E016ECB
:1039800028D027D05C0E016E24D023D0730E016E98
:1039900020D01FD0670E016E1CD01BD0500E016EC0
:1039A00018D017D06D0E016E14D013D0780E016EA2
:1039B00010D00FD03E0E016E0CD00BD06E0E016EEB
:1039C00008D007D0360E016E04D003D0000E016E71
:1039D00000D012007FB527D0C580C5B0FED746C243
:1039E000ECF25CEC16F0015001E007D1020E02018E
:1039F000EC6F00015CEC16F00201E351036AE56F25
:103A0000EC6F00015CEC16F00201E2C200F0036A08
:103A1000E2C2E5F2E2C2ECF200015CEC16F0C58411
:103A2000C5B4FED7EAD07FA5E8D02AEC09F0E3C2FE
:103A3000E6F2E2C2E5F20201E86B0A0EE76F00016E
:103A4000B5DD02C0E6F201C0E5F2196AF2BE198ED8
:103A5000F29E02C05DFA01C05CFA0A015F6B0A0EB9
:103A60005E6F000185EC01F019BEF28E015002017B
:103A7000E25DE46FE4C2F0F2000164DE01C0B6F181
:103A80000201E35306E1E251090803E30001B5D066
:103A90000201E3C2E6F2E2C2E5F2E86B0A0EE76F6A
:103AA000000184DD02C0E3F201C0E2F2E3C2E6F20B
:103AB000E2C2E5F20201E86B0A0EE76F000176DD73
:103AC00002C0E6F201C0E5F2196AF2BE198EF29E5A
:103AD00002C05DFA01C05CFA0A015F6B0A0E5E6FFC
:103AE000000185EC01F019BEF28E01500201E25D89
:103AF000E46FE4C2F0F2000125DE01C0B7F102017B
:103B0000E35306E1E251090803E3000176D0020124
:103B1000E3C2E6F2E2C2E5F2E86B0A0EE76F0001EB
:103B200045DD02C0E3F201C0E2F2E3C2E6F2E2C226
:103B3000E5F20201E86B0A0EE76F000137DD02C013
:103B4000E6F201C0E5F2196AF2BE198EF29E02C0D9
:103B50005DFA01C05CFA0A015F6B0A0E5E6F00013C
:103B600085EC01F019BEF28E01500201E25DE46FB6
:103B7000E4C2F0F20001E6DD01C0B8F10201E35356
:103B800006E1E251090803E3000137D00201E3C274
:103B9000E6F2E2C2E5F2E86B0A0EE76F000106DD2D
:103BA00002C0E3F201C0E2F2E3C2E6F2E2C2E5F2F1
:103BB0000201E86B0A0EE76F0001F8DC02C0E6F2D2
:103BC00001C0E5F2196AF2BE198EF29E02C05DFADA
:103BD00001C05CFA0A015F6B0A0E5E6F000185ECA2
:103BE00001F019BEF28E01500201E25DE46FE4C201
:103BF000F0F20001A7DD01C0B9F120EF21F0ECC225
:103C0000F0F2A0DD01C0B6F1EDC2F0F29BDD01C023
:103C1000B7F1EEC2F0F296DD01C0B8F1EFC2F0F2FA
:103C200091DD01C0B9F146EF1EF07FB524D0C5800B
:103C3000C5B0FED746C2ECF25CEC16F0015001E0D4
:103C400025D0030E0201EC6F00015CEC16F0EBC214
:103C5000ECF25CEC16F0EAC2ECF25CEC16F0E9C2B5
:103C6000ECF25CEC16F0E8C2ECF25CEC16F0C58409
:103C7000C5B4FED70BD07FA509D0E8C2ECF2E9C2EB
:103C8000EDF2EAC2EEF2EBC2EFF2B9D753EF21F058
:103C90000201E26BC580C5B0FED746C2ECF200015E
:103CA0005CEC16F0015001E029D0050E0201EC6F2A
:103CB00000015CEC16F00201E26B036AE251E025C0
:103CC000E96EE1510320EA6EEF5211E0036AE2511E
:103CD000E025E96EE1510320EA6EEFCFE3F2E3C2A3
:103CE000ECF200015CEC16F00201E22BE6D7EC6B83
:103CF00000015CEC16F0C584C5B4FED788EF21F056
:103D0000C580C5B0FED746C2ECF25CEC16F0060EDC
:103D10000201EC6F00015CEC16F0C584C5B4FED75F
:103D2000BBEF21F00201E06BC580C5B0FED7465164
:103D30000109E16FEC6F00015CEC16F0006A6AECBF
:103D400016F001C0E0F2C584C5B4FED70201E0C29E
:103D500001F000018DEF21F0C580C5B0FED746C24D
:103D6000ECF25CEC16F0080E0201EC6F00015CEC6A
:103D700016F0E2C2ECF25CEC16F0C584C5B4FED7D6
:103D8000BBEF21F00201B36BBB6BBA6BB2512C0AD3
:103D90000001D8B4B2D0010AD8B4B0D0030AD8B464
:103DA000AED0010AD8B4B0D01F0AD8B4B2D0030A3A
:103DB000D8B4B4D0060AD8B4B4D0010AD8B4B4D0B8
:103DC000020AD8B4B4D00A0AD8B4B4D00D0AD8B410
:103DD000B4D0030AD8B4B1D0090AD8B4C0D0060A06
:103DE000D8B4C8D0030AD8B4C5D0010AD8B4C5D055
:103DF0007F0AD8B4C7D0010AD8B4C9D0030AD8B44E
:103E0000CBD0060AD8B4CDD0010AD8B4CFD0030A9B
:103E1000D8B4E9D0010AD8B4FFD00F0AD8B40CD175
:103E20007F0AD8B419D10F0AD8B416D1710AD8B400
:103E300013D1030AD8B410D1010AD8B40DD1070A9E
:103E4000D8B40AD1010AD8B407D1030AD8B404D12E
:103E5000770AD8B426D1030AD8B423D1750AD8B4C6
:103E600020D11F0AD8B41DD1010AD8B41AD1030A2F
:103E7000D8B417D1010AD8B414D1070AD8B411D1D3
:103E8000010AD8B43AD1030AD8B439D1010AD8B456
:103E900038D10F0AD8B435D1010AD8B432D1030AC7
:103EA000D8B466D1010AD8B46ED1070AD8B472D199
:103EB000010AD8B476D1030AD8B47ED13F0AD8B467
:103EC0008FD1030AD8B48FD1010AD8B4A0D1070A80
:103ED000D8B420D2010AD8B41FD2030AD8B427D24A
:103EE000010AD8B42ED20F0AD8B431D2010AD8B4FC
:103EF00034D2030AD8B437D23CD23DD23CD2010EE0
:103F00000101FD6F000137D2020E0101FD6F0001BA
:103F100032D2030E0101FD6F00012DD20201B32B3D
:103F200000010201B32B00010201B32B00010201C9
:103F3000B32B00010201B32B0001B3C2E0F28EECFF
:103F400015F00201B251320808E100011AEC1AF032
:103F500002C01DF201C01CF27F8300010CD21AECDA
:103F60001AF002C0E1F201C0E0F201C0E2F2E1ECBD
:103F700015F001D23AEC1BF0FED1040E0101FD6FE9
:103F80000001F9D1080E0101FD6F0001F4D10C0E02
:103F90000101FD6F0001EFD10F0E0101FD6F000166
:103FA000EAD102010A958B920001E5D11AEC1AF0D0
:103FB000F2CFE2F2F29EF86A02C0F7FF01C0F6FF0C
:103FC0000900F5500800F5CF03F0F86A0201E2BFDE
:103FD000F28EE06F03C0E1F203C0E3F2E26F000192
:103FE0007AEC1AF0C8D11AEC1AF002C0B5F201C08E
:103FF000B4F21AEC1AF002C0B7F201C0B6F2B7C2BE
:10400000E7F2B6C2E6F2C6EC10F0B5C2E1F2B4C215
:10401000E0F278EC16F0AFD11AEC1AF002C0E1F23F
:1040200001C0E0F20201E16BE1C2E3F201C0E2F2A1
:1040300000017AEC1AF09FD11AEC1AF002C0E1F2FA
:1040400002C0E0F20201E16BE1C2E3F202C0E2F27F
:1040500000017AEC1AF08FD10201B251480804E352
:10406000370EB25DB36F04D0490EB25D020FB36F6D
:10407000036AB351F10FE96E010E0320EA6EEFCF30
:10408000E0F2E0C2E1F2000151EC14F002C0E1F212
:1040900001C0E0F202C0E3F201C0E2F27AEC1AF0F1
:1040A0006AD10201B2514E0804E3390EB25DB36F1A
:1040B00004D04F0EB25D020FB36F036AB351F10F1C
:1040C000E96E010E0320EA6EEFCFE0F2E0C2E1F20A
:1040D000000151EC14F002C0E1F2D890036A020131
:1040E0000230026E0310000ED8B4010EE06FE36BD5
:1040F000E26F00017AEC1AF03ED18B803CD18B90BC
:104100003AD10201E06B00018EEC15F0030E0201C2
:10411000E06F00018EEC15F0010E0201E26F00016C
:104120008BEC14F01AEC1AF001C0B3F20201B25198
:10413000570807E1B3C2E2F20001E1EC15F017D035
:104140000201B251580807E1B3C2E1F2000151EC9B
:104150001BF00DD00201E069B3C2E1F200017AEF79
:104160001BF001C0E0F201C0E1F251EC1BF003D101
:104170001AEC1AF002C0B5F201C0B4F2B4C2E0F217
:104180004DEC16F0F8D002010A8FC580C5B0FED7FD
:104190000001F1D0C584C5B4FED702010A9F000119
:1041A000EAD01AEC1AF002C0E1F201C0E0F201C05C
:1041B000ECF25CEC16F0DFD01AEC1AF002C0E1F27F
:1041C00001C0E0F201C000F06AEC16F001C0E0F2BC
:1041D0000201E36B01C0E2F200017AEC1AF0CBD0ED
:1041E00091EC17F0C8D01AEC1AF002C0E1F201C04D
:1041F000E0F201C0E2F260EC17F001C0E0F202016F
:10420000E36B01C0E2F200017AEC1AF0B4D01AECD0
:104210001AF002C0B5F201C0B4F20201B4510208B2
:104220001BE1B55319E100011AEC1AF002C0E1F2EA
:1042300001C0E0F202C0E3F201C0E2F2EAEF1CF0DA
:10424000020E0201E06F960EE46F00012AEC14F0FA
:104250000201E02FF8D75CD0B451030826E1B55332
:1042600024E100011AEC1AF002C0E1F201C0E0F210
:104270001AEC1AF002C0E3F201C0E2F21AEC1AF0F2
:1042800002C0E5F201C0E4F21AEC1AF002C0E7F253
:1042900001C0E6F2E0C2E8F2E2C2E9F2E4C2EAF208
:1042A00001C0EBF2C2D434D00201B451050830E1B0
:1042B000B5532EE100011AEC1AF001C0BEF2020162
:1042C000B36BBE51B35D16E2036AB351BF0F016E0B
:1042D000020E032201C0E0F203C0E1F200011AEC79
:1042E0001AF0E1C2EAFFE0C2E9FF01C0EFFF0201FC
:1042F000B32BE7D7036AB351BF0FE96E020E032059
:10430000EA6EEF6A020EE16FBF0EE06F0001C0D4EB
:10431000000131D0F5D42FD005D501C0E0F2020163
:10432000E36B01C0E2F200017AEC1AF024D01AEC3F
:104330001AF002C0E1F201C0E0F201C0E2F20CD5D5
:104340001AD002010A9DB00E466F000114D002017E
:104350000A9DB20E466F00010ED002010A9DB40EF6
:10436000466F000108D002010A9DB60E466F00019B
:1043700002D03AEC1BF029EF27F00201B16BB06BD1
:10438000A8AF76D0010E0101AB250201B06F000E7F
:104390000101AC210201B16FB36BA8C2B2F23F0EB2
:1043A000B217B36BB2C2B3F2B26B0001B7EC19F043
:1043B00001500201B2250101AB6F000E0201B321D1
:1043C0000101AC6F0001B7EC19F00201AB6B01C049
:1043D000AAF2A8AD13D0A96B030EAA25016E000E98
:1043E000AB21036E0150035203E10150A95D06E2C7
:1043F0000001E6EC19F00201A92BEED7A96BAB5333
:1044000003E1AA51A95D10E200011AEC1AF002C002
:10441000B3F201C0B2F202C0B5F201C0B4F244EC92
:104420001AF00201A92BEBD7B56B82C0B4F20001E0
:1044300044EC1AF0B1C2B5F2B0C2B4F244EC1AF0D6
:10444000020E0201AA25016E000EAB21036E01507F
:104450000101045D0201B26F000E0354B36FB56F2A
:10446000B2C2B4F2000144EC1AF029EF27F00201C5
:10447000A851000A0001D8B48FD0010AD8B496D050
:10448000030AD8B4A1D0010AD8B4B9D0070AD8B465
:10449000CFD0010AD8B415D1030AD8B435D1010A56
:1044A000D8B465D10F0AD8B462D1010AD8B4A2D168
:1044B000030AD8B4DCD1010AD8B4F6D1070AD8B4BB
:1044C0001AD2010AD8B41BD2030AD8B41AD2010AEC
:1044D000D8B42FD21F0AD8B447D2010AD8B44CD2CC
:1044E000030AD8B451D2010AD8B453D2070AD8B4B7
:1044F00068D2010AD8B47CD24A0AD8B485D23F0A1D
:10450000D8B49CD2760AD8B4A5D2010AD8B4B0D215
:104510000F0AD8B4ADD2010AD8B4AAD2030AD8B4CB
:10452000A7D2010AD8B4A4D2070AD8B4A1D2010AEA
:10453000D8B49ED2030AD8B49BD2010AD8B498D278
:104540003F0AD8B495D2010AD8B492D2030AD8B49B
:104550003AD3010AD8B447D3070AD8B461D3010AC1
:10456000D8B47CD3030AD8B45DEF26F0010AD8B4DE
:104570008EEF26F00F0AD8B4C5EF26F0010AD8B4A2
:10458000EDEF26F0030AD8B4F1EF26F0010AD8B413
:10459000F9EF26F025EF27F002010A958B92010131
:1045A000866B856B886B876B2AEF27F0B7EC19F069
:1045B00001C0B2F20201E36B01C0E2F200017AEC49
:1045C0001AF001012AEF27F0B7EC19F00201B36BE2
:1045D00001C0B2F201C0B3F2B26B0001B7EC19F046
:1045E00001500201B227000EB323B3C2E3F2B2C2FC
:1045F000E2F200017AEC1AF001012AEF27F0010E35
:104600000101AB250201B26F000E0101AC210201D4
:10461000B36FE36FB2C2E2F200017AEC1AF0B7ECCA
:1046200019F001500101AB27000EAC232AEF27F04F
:104630001AEC1AF002C0B1F201C0B0F20101AC51A3
:104640000201B15D0EE308E1B0510101AB5DD8A0FC
:1046500002D0020106D00201B1C2ACF1B0C2ABF18E
:1046600027D0B1C2ACF1B0C2ABF100011AEC1AF024
:1046700002C088F101C087F10101885303E187512D
:10468000010804E28751D8B488078707872D02D034
:1046900088530EE088C1E3F287C1E2F200017AECB0
:1046A0001AF0ACC1E3F2ABC1E2F27AEC1AF001010C
:1046B0000A0E09012B6F00017AEC0CF001012AEFC0
:1046C00027F01AEC1AF00150021009E01AEC1AF067
:1046D0001AEC1AF002C0ACF101C0ABF112D01AEC26
:1046E0001AF002C0ACF101C0ABF1ACC1E3F2ABC156
:1046F000E2F27AEC1AF00A0E09012B6F00017AEC53
:104700000CF001012AEF27F0B7EC19F00201B16BB0
:1047100001C0B0F20001E6EC19F002C0ABF201C03A
:10472000AAF2ABC2B5F2AAC2B4F244EC1AF002018A
:10473000B051AA25B26FB151AB21B36FD890B23549
:10474000026EB335036E0250050FE96E010E0320B1
:10475000EA6EECCFB3F2ED52EFCFB2F2B3C2E3F2B6
:10476000B2C2E2F200017AEC1AF0010173D3020145
:10477000A851080807E100011AEC1AF002C0B1F2D2
:1047800001C0B0F20001E6EC19F002C0ABF201C0CA
:10479000AAF2E6EC19F002C0ACF101C0ABF1E6EC14
:1047A00019F002C0ADF201C0ACF20201AD530AE152
:1047B000000182510201AC5D05E200011AEC1AF021
:1047C000F4D70201AB530AE1010104510201AA5DD1
:1047D00005E20001E6EC19F00201F4D7A85108083F
:1047E00007E1B1C2E3F2B0C2E2F200017AEC1AF0E2
:1047F000010130D31AEC1AF002C086F101C085F134
:104800001AEC1AF002C088F101C087F1ACC1E3F2E2
:10481000ABC1E2F27AEC1AF00101885303E187514F
:10482000010813E288C1E3F287C1E2F200017AECE9
:104830001AF086C1E3F285C1E2F27AEC1AF086C181
:10484000ACF185C1ABF111D00101872D07D08853A0
:1048500005E186C1ACF185C1ABF108D000011AECCD
:104860001AF002C0ACF101C0ABF10101F3D21AECB5
:104870001AF002C0ABF201C0AAF21AEC1AF002C0A0
:10488000ADF201C0ACF20201AC51AD110BE0ACC114
:10489000E3F2ABC1E2F200017AEC1AF0ABC2ACF188
:1048A000AAC2ABF10101D6D21AEC1AF002C0ABF2E7
:1048B00001C0AAF21AEC1AF002C0ADF201C0ACF2CB
:1048C0001AEC1AF002C0AFF201C0AEF2ACC1E3F2D2
:1048D000ABC1E2F27AEC1AF00201AE51AF1105E081
:1048E000ADC2ACF1ACC2ABF104D0ABC2ACF1AAC268
:1048F000ABF10101AFD211EC11F00101ABD201011A
:10490000A9D21AEC1AF002C086F101C085F1ACC13F
:10491000E3F2ABC1E2F27AEC1AF086C1E3F285C1B0
:10492000E2F27AEC1AF086C1ACF185C1ABF101017B
:1049300091D21AEC1AF002C086F101C085F1010192
:10494000886B876B0201E36BE26B00017AEC1AF073
:1049500086C1E3F285C1E2F27AEC1AF086C1ACF1CD
:1049600085C1ABF1010176D21AEC1AF002C01DF23A
:1049700001C01CF201016ED21FC2E3F21EC2E2F2BC
:104980007AEC1AF0010166D202011F6B1E6B010165
:1049900061D21AEC1AF002C0B1F201C0B0F2B1C299
:1049A000B2F20201B36BB0C2B4F2B56BB1C2E2F2C3
:1049B000000183EC0EF0B4C2E2F283EC0EF00101D0
:1049C00049D202014FB509D00AA507D0010E09014D
:1049D0002B6F00017AEC0CF0F4D74CC2E3F24BC21F
:1049E000E2F200017AEC1AF002014F95010132D295
:1049F000000E02014FB5010EB26FE36BE26F0001D2
:104A00007AEC1AF0010126D202011B530DE10AA52E
:104A10000BD0020EB26FFA0EE46F00012AEC14F014
:104A20000201B22FF8D7F1D7E36B1BC2E2F200010B
:104A30007AEC1AF002010A9301010CD2000E020175
:104A40000AB3010EB26FE36BE26F00017AEC1AF069
:104A5000010100D2F9EF1AF002C0B3F201C0B2F2C4
:104A600002C0E3F201C0E2F27AEC1AF00101F2D1E5
:104A70001AEC1AF002C0ADF201C0ACF21AEC1AF056
:104A800002C0ABF201C0AAF2170E0201A85DF50F39
:104A9000D8B090D00B0F00012DEF27F00201AC51E0
:104AA000AA27AD51AB2386D00201AC51AA5FAD510C
:104AB000AB5B80D0196AF2BE198EF29EABC25DFA72
:104AC000AAC25CFAADC25FFAACC25EFA85EC01F034
:104AD00019BEF28E02C0ABF201C0AAF202016AD086
:104AE000ABC2E6F2AAC2E5F2ADC2E8F2ACC2E7F2AE
:104AF000D6EC1AF002C0ABF201C0AAF202015AD001
:104B0000ABC2E6F2AAC2E5F2ADC2E8F2ACC2E7F28D
:104B1000D6EC1AF000C0AAF2020103C0ABF24AD0F0
:104B20000201AC51AA5D03E1AD51AB5D02E0000EA4
:104B300001D0010EAB6BAA6F3DD00201AD51AB5D50
:104B400004E305E1AA51AC5D02E3000E01D0010EC1
:104B5000AB6BAA6F2FD00201AB51AD5D04E305E151
:104B6000AC51AA5D02E3000E01D0010EAB6BAA6F3F
:104B700021D00201AA51AB1103E0AC51AD1102E109
:104B8000000E01D0010EAB6BAA6F14D00201AA5126
:104B9000AB1105E1AC51AD1102E1000E01D0010EE7
:104BA000AB6BAA6F07D00201AC51AA1BAD51AB1B76
:104BB00001D00201ABC2E3F2AAC2E2F200017AEC38
:104BC0001AF0010147D11AEC1AF001500210000E40
:104BD000D8B4010E0201B26FE36BE26F00017AEC10
:104BE0001AF0010137D11AEC1AF002C0B1F201C07B
:104BF000B0F21AEC1AF002C0B3F2D89002010134FC
:104C0000026EB335036E0250890FE96E010E032068
:104C1000EA6EB1C2ECFFED52B0C2EFFF01011AD152
:104C20001AEC1AF002C0B3F2D89002010134026EFD
:104C3000B335036E0250890FE96E010E0320EA6E50
:104C4000ECCFB3F2ED52EFCFB2F2B3C2E3F2B2C2A5
:104C5000E2F200017AEC1AF00101FCD01AEC1AF031
:104C600002C0ADF201C0ACF21AEC1AF0D890020109
:104C70000134AA6F0234AB6F00011AEC1AF001C0C4
:104C8000B0F20201E40E0224B16FAA51B025B26F56
:104C9000AB51B121B36FD890B237B337B3C2E7F29B
:104CA000B2C2E6F20001C6EC10F0ADC2E1F2ACC255
:104CB000E0F278EC16F00101CDD01AEC1AF0D890A1
:104CC00002010134AA6F0234AB6F00011AEC1AF032
:104CD00001C0B0F20201E40E0224B16FAA51B02566
:104CE000B26FAB51B121F2CFB4F2F29EF86AF76E17
:104CF000B2C2F6FF0900F5500800F5CF03F0F86ADC
:104D0000B4BFF28EAC6F03C0ADF2ADC2E3F2ACC281
:104D1000E2F200017AEC1AF001019CD01AEC1AF0D0
:104D200002C0B1F201C0B0F20101AAC103F0A95161
:104D3000A92BD8B4AA2B0201B26F03C0B3F2D8904A
:104D4000B235026E0334036E02C0B2F2580E032471
:104D5000B36FE76F02C0E6F20001C6EC10F0B1C21B
:104D6000E1F2B0C2E0F278EC16F0F90E0201E76F62
:104D7000F00EE66F0001C6EC10F0AAC1E1F2A9C185
:104D8000E0F278EC16F0010165D0D8900101A93568
:104D9000026EAA35036E0201580E0324F2CFB4F25C
:104DA000F29EF86AF76E02C0F6FF0900F55008009F
:104DB000F5CF03F0F86AB4BFF28EB06F03C0B1F262
:104DC0000101A92BD8B4AA2BB1C2E3F2B0C2E2F21E
:104DD00000017AEC1AF001013DD00101AA6BA96B28
:104DE00039D01AEC1AF002C0AAF101C0A9F10101F0
:104DF00031D01AEC1AF0D89002010134AA6F0234B3
:104E0000AB6FB16BB06BB151AB5D1AE303E1AA516B
:104E1000B05D16E2B0C2B2F2580EB125B36FE76FC3
:104E2000B0C2E6F20001C6EC10F00201E16BE06BEB
:104E3000000178EC16F00201B02BD8B4B12BE3D707
:104E40000101AA6BA96B06D00001A8C2B2F2C2EFA1
:104E50001EF001010001FEEF29F0E824F76AF736A1
:104E6000750FF66E4E0EF7220A00F550FA6E080026
:104E7000F550F96E9C4AA84AB44AE04A004B204BD0
:104E80003A4B564B724B8C4BA64BF86AD09E078E12
:104E900094869488770EC86E280EC66EC78EC79CFF
:104EA0007E86E10EB06E040E7F6EA60EAD6E900E85
:104EB000AC6E0101866B856B886B876B00017F93FD
:104EC0007F850101B56BB66BB76BB86BB96B000131
:104ED0007F970101FA6B00017F997F9B0101FC6BB9
:104EE000FE6BFF6B00017F9D7F9F02010A91176B94
:104EF000690E196F18691A6B0A930A950A970A992D
:104F00001D6B1C6B1F6B1E6B206B416B426B436BED
:104F1000446B0A9B456B466B0A8D0A9F4C6B4B6B2F
:104F20004E6B4D6B4F81516B506B526B4F83556B7A
:104F30004F954F974F99976B966B9B6B9A6B020EA1
:104F40009C6F9D6BC088FF0EC16EC098C29CC29EB4
:104F5000C088C26EC098D26AD16A1E6A040E1F6EE3
:104F60000C0E206E0101896B8A6B8B6B8C6B8D6BC9
:104F70008E6B8F6B906B916B926B936B946B956B4D
:104F8000966B976B986B996B9A6B9B6B9C6B9D6BFD
:104F90009E6B9F6BA06BA16BA26BA36BA46BA56BAD
:104FA000A66BA76BA86BAF6BB06B180EBA6F7C0EBD
:104FB000BB6F1A0EBC6F7C0EBD6F0A0EBE6F7C0EEF
:104FC000BF6F0D0EC06F7C0EC16F190EC26F7C0ECD
:104FD000C36F1B0EC46F7C0EC56F0B0EC66F7C0EAD
:104FE000C76F0C0EC86F7C0EC96F0B0EF16F0A0EE7
:104FF000F26F070EF36F030EF46F020EF56F010EE2
:10500000F66FF76B040EF86F02010069016902691F
:1050100003690469056906690769086909690B6B11
:105020000C6B0D6B0E6B0F6B106B116B126B136BAC
:10503000146B156B166BB00E476FB20E486FB40E43
:10504000496FB60E4A6FF19E9B8C010E09012B6FC2
:1050500000017AEC0CF081B00FD02F0E926E010E91
:10506000936E900E946E000E956E800E966E8B80F1
:105070008B828B9495EF0EF08EEF0FF016EF10F001
:10508000F2CFA7F2F29EF86AF90EF76EF20EF66E04
:105090000900F5500800F5CF03F0F86A0201A7BF38
:1050A000F28EA76F03C0A8F2A72D0CD0A8530AE177
:1050B000196AF2BE198EF29E00013DEC09F019BE8C
:1050C000F28E0201000160EF12F00101CA510508E1
:1050D000D8A42DD100017FA702D0010128D1010160
:1050E000CB51F90F4CE2070F00011FEF2AF001012D
:1050F00046D00101CD51030809E14CC29FF24BC2D9
:105100009EF202014C6B4B6B13D00101036ACC5130
:10511000F10FE96E010E0320EA6EEFCFA7F2A7C2EE
:10512000E1F2000151EC14F002C09FF201C09EF2C6
:10513000010125D0CCC1E0F28EEC15F001011FD0A9
:10514000CCC1E2F2E1EC15F0010119D0CEC1E0F2E0
:105150004DEC16F0010113D0CEC1A7F2CDC1A8F2DB
:1051600050EF16F001010BD0CCC1A7F2CDC1A8F2CF
:10517000CEC1A9F281EF16F0010101D00101CB2DC2
:105180001BD09FC2A7F20201A86B9EC2A9F2AA6B14
:10519000550EE26F000183EC0EF00201E26900019E
:1051A00083EC0EF0A7C2E2F283EC0EF0A9C2E2F2A9
:1051B00083EC0EF027D00101550E0201E26F0001D1
:1051C00083EC0EF00201E269000183EC0EF0AA0EFE
:1051D0000201E26F000183EC0EF00101CB5313E1F9
:1051E000010E0201E26F000183EC0EF0100E0201CD
:1051F000E26F000183EC0EF0010E0201E26F00018C
:1052000083EC0EF00101CB510608D8A48DD0CC510F
:105210000308D8A489D00201A86BCDC1A7F2CDC1E3
:10522000A8F2A76B0101CE510201A727000EA82307
:10523000A735A06FA835A16FA037A137A037A13738
:10524000A037A137A037A137E00EA017A05315E172
:10525000A15313E1F2CFA7F2F29EF86AF90EF76EAE
:10526000F00EF66E0900F5500800F5CF03F0F86A6D
:10527000A7BFF28EA06F03C0A1F2D890A037A137CC
:10528000A0C2A7F2A86BA1C2A9F2AA6BEE0EE26FB0
:10529000000183EC0EF0110E0201E26F000183ECBD
:1052A0000EF0A7C2E2F283EC0EF0A9C2E2F283ECA8
:1052B0000EF0D8900201A133A033A36BA26BA351CF
:1052C000A15D31E303E1A051A25D2DE2D890A235AA
:1052D000026EA335036E580E0324F2CFA9F2F29E9C
:1052E000F86AF76E02C0F6FF0900F5500800F5CF26
:1052F00003F0F86AA9BFF28EA46F03C0A5F2A4C29E
:10530000A7F2A86BA5C2A9F2AA6BA4C2E2F200019F
:1053100083EC0EF0A9C2E2F283EC0EF00201A22BA4
:10532000D8B4A32BCCD70101010ECA6F58D0CA51F3
:1053300005084EE100017FB702D0010149D0550EAA
:105340000201E26F000183EC0EF00201E26900014C
:1053500083EC0EF00101CB5315E10201A66BA651BF
:1053600006080EE3A6C2E2F2000160EC17F001C0ED
:10537000A7F201C0E2F283EC0EF00201A62BEFD7F8
:1053800023D00101CB2D20D0000191EC17F00201B8
:10539000A66BA651060813E3036AA651CF0FE96E68
:1053A000010E0320EA6EEFCFA7F2A6C2A8F2A7C2B1
:1053B000A9F20001EEEF17F00201A62BEAD7AA0E20
:1053C000E26F000183EC0EF0010E0101CA6F07D0FD
:1053D0000001FEEF17F0CCEF18F0AFEF19F002016B
:1053E0000AA50ED01C511D110AE10001B7EC19F0FD
:1053F00001C0A7F201C0A8F2BDEF21F0020109D05F
:105400000AA107D00101FF6B0001B2EC0FF002010D
:105410000A912051040805E2010E0101CA6F020140
:10542000206B0001B9EC0CF002014FA706D000017F
:1054300011EC11F08B9002014F9744D60300E82441
:10544000F76AF736590FF66E540EF7220A00F55038
:10545000FA6E0800F550F96EEE50F250345140519A
:065460004C515851685147
:02580000120094
:06FFF800A6F745F7F8FB37
:00000001FF
;PIC18F66J50
;CRC=1782  CREATED="21-ат.б.-13 10:25"
